:0A0E5100000102020303040405057A
:10039A00E4F513F512F511F510C203C200C202C248
:1003AA00011209797E077F008E238F24752B07752A
:1003BA002C1275210775221C752907752A3C752D83
:1003CA0007752E5C90E680E030E70E8521258522B0
:1003DA0026852927852A28800C852925852A268588
:1003EA002127852228EE54E0700302050D751400BA
:1003FA007515807E077F008E168F17C374EC9FFFDA
:10040A0074079ECF2402CF3400FEE48F0F8E0EF5C0
:10041A000DF50CF50BF50AF509F508AF0FAE0EADA3
:10042A000DAC0CAB0BAA0AA909A808C3120D80507F
:10043A002AE515250BF582E514350AF58374CDF006
:10044A00E4FAF9F8E50B2401F50BEA350AF50AE9AD
:10045A003509F509E83508F50880C0E4F50BF50A11
:10046A00F509F508AF0FAE0EAD0DAC0CAB0BAA0A31
:10047A00A909A808C3120D805037E517250BF58284
:10048A00E516350AF583E0FFE515250BF582E51437
:10049A00350AF583EFF0E4FAF9F8E50B2401F50BD8
:1004AA00EA350AF50AE93509F509E83508F5088053
:1004BA00B385142385152474002480FF740734FF40
:1004CA00FEC3E52C9FF52CE52B9EF52BC3E5269F55
:1004DA00F526E5259EF525C3E5289FF528E5279EFF
:1004EA00F527C3E5229FF522E5219EF521C3E52ADA
:1004FA009FF52AE5299EF529C3E52E9FF52EE52DC0
:10050A009EF52DD2E843D82090E668E04409F090A1
:10051A00E65CE0443DF0D2AF90E680E020E105D20F
:10052A0005120CB990E680E054F7F0538EF8C20336
:10053A00300105120100C201300329120E6B50244A
:10054A00C203120D9120001690E682E030E704E023
:10055A0020E1EF90E682E030E604E020E0E4120CCD
:09056A00E8120E6D12057480C741
:010573002265
:1001000090E6B9E070030201DC147003020285245A
:10011000FE700302031A24FB70030201D61470035D
:100120000201D01470030201C41470030201CA2436
:10013000056003020386120E6F400302039290E6ED
:10014000BBE024FE602C14604724FD60161460316F
:1001500024067066E52390E6B3F0E52490E6B4F05B
:10016000020392E52B90E6B3F0E52C90E6B4F002A2
:100170000392E52590E6B3F0E52690E6B4F002039D
:1001800092E52790E6B3F0E52890E6B4F0020392FA
:1001900090E6BAE0FF120D3FAA06A9077B01EA49E3
:1001A0004B600DEE90E6B3F0EF90E6B4F0020392F0
:1001B00090E6A0E04401F002039290E6A0E0440142
:1001C000F0020392120E24020392120E63020392B3
:1001D000120E5B020392120E12020392120E714073
:1001E0000302039290E6B8E0247F602B14603C2465
:1001F00002600302027BA200E433FF25E0FFA202BB
:10020000E4334F90E740F0E4A3F090E68AF090E604
:100210008B7402F0020392E490E740F0A3F090E6C2
:100220008AF090E68B7402F002039290E6BCE054F0
:100230007EFF7E00E0D3948040067C007D01800438
:100240007C007D00EC4EFEED4F2451F582740E3E95
:10025000F583E493FF3395E0FEEF24A1FFEE34E64F
:100260008F82F583E0540190E740F0E4A3F090E63C
:100270008AF090E68B7402F002039290E6A0E044CC
:1002800001F0020392120E73400302039290E6B84B
:10029000E024FE601D2402600302039290E6BAE0AF
:1002A000B40105C20002039290E6A0E04401F0020E
:1002B000039290E6BAE0705990E6BCE0547EFF7E6F
:1002C00000E0D3948040067C007D0180047C007DAA
:1002D00000EC4EFEED4F2451F582740E3EF583E4A2
:1002E00093FF3395E0FEEF24A1FFEE34E68F82F515
:1002F00083E054FEF090E6BCE05480FF13131354E7
:100300001FFFE0540F2F90E683F0E04420F002033B
:100310009290E6A0E04401F08078120E7550739040
:10032000E6B8E024FE60202402706790E6BAE0B4EC
:100330000104D200805C90E6BAE06402605490E66A
:10034000A0E04401F0804B90E6BCE0547EFF7E00CC
:10035000E0D3948040067C007D0180047C007D0019
:10036000EC4EFEED4F2451F582740E3EF583E4937E
:10037000FF3395E0FEEF24A1FFEE34E68F82F58394
:10038000E04401F0800C120B44500790E6A0E044DA
:0903900001F090E6A0E04480F0C9
:010399002241
:030033000209FCC3
:0409FC0053D8EF32AB
:100700001201000200000040470502100000010233
:1007100000010A060002000000400100090220005A
:1007200001010080320904000002FF0000000705FB
:1007300002020002000705860200020009022000F2
:1007400001010080320904000002FF0000000705DB
:10075000020240000007058602400000040309046D
:10076000100343007900700072006500730073008D
:100770007C0345005A002D00550053004200200024
:100780004600580032002000470050004900460053
:10079000200074006F0020004500780074002000E5
:1007A0004600490046004F002000450078006100E7
:1007B0006D0070006C00650020007500730069001A
:1007C0006E0067002000530069006E0067006C0037
:1007D000650020005400720061006E00730061002B
:0E07E0006300740069006F006E00730000007B
:1007EE004210AE00004110AD00C104011A00011B01
:0907FE00004110AB004110AC00F9
:0B0E4600E5BB30E7FB90E6F1EFF02287
:1006E500E5BB30E7FB90E6F1E0F51AE5BB30E7FB4B
:0906F50090E6F2E08F828E83F0A2
:0106FE0022D9
:100E3600E5BB30E7FB90E6F0EFF090E6F1EEF0224E
:040D1400AD07AC0675
:100D1800E5BB30E7FB90E6F1E0F51BE5BB30E7FB10
:100D280090E6F2E0FE90E6F0E0FBEEEBFF8D828CC1
:060D380083EEF0A3EFF0D2
:010D3E002292
:1009790090E600E054E74410F000000090E612749D
:10098900A0F0000000E490E613F000000090E614E7
:1009990074E0F0000000E490E615F000000090E635
:1009A9001804F000000090E61AF000000090E60438
:1009B9007480F00000007402F00000007406F0007A
:1009C9000000E4F000000090E6917480F00000005F
:1009D900F0000000F0000000F00000001208BE4323
:1009E900B2044380045380FB7F017E00120C004354
:0309F90080042255
:10057400E5AA20E07690E6F4E030E16F90E690E0C2
:10058400FE90E691E07C002400FFEC3E9010B2F077
:10059400A3EFF09010B2E0C313F0A3E013F07EF0E9
:1005A4007F007D007CF0E49010B0F0A3F09010B2D6
:1005B400E0FEA3E0FFC39010B1E09F9010B0E09E76
:1005C40050238D828C83E0FEA3E0FF120E3674026A
:1005D4002DFDE43CFC9010B1E004F070069010B0E6
:1005E400E004F080C890E6917480F0300474E5AAC9
:1005F40020E56F90E6F4E030E0687EF87F0075183F
:10060400F8751900E49010B0F0A3F09010B2E0FE79
:10061400A3E0FFC39010B1E09F9010B0E09E502281
:10062400AF19AE18120D1474022519F519E4351812
:10063400F5189010B1E004F070069010B0E004F0EA
:1006440080C99010B3E025E0F09010B2E033F0E000
:1006540090E698F00000009010B3E090E699F00066
:1006640000009010AEE475F001120D6AAFF0FEBE0A
:100674002727BF10249010ADE0600C7F0112069E66
:10068400E49010ADF0800B7F01120BB99010AD74A3
:0906940001F0E49010AEF0A3F0B7
:01069D00223A
:020E6B00D32290
:020E6D00D3228E
:020E6F00D3228C
:080E5B0090E6BAE0F51DD32278
:100E120090E740E51DF0E490E68AF090E68B04F05E
:020E2200D322D9
:080E630090E6BAE0F51CD32271
:100E240090E740E51CF0E490E68AF090E68B04F04D
:020E3400D322C7
:020E7100D3228A
:020E7300D32288
:020E7500D32286
:100B440090E6B9E0244D603314604B240270624394
:100B5400B2044380045380FB7F017E00120C0043E7
:100B6400800490E74074B2F0E490E68AF090E68B5B
:100B740004F090E6A0E04480F08038D20490E7408E
:100B840074B3F0E490E68AF090E68B04F090E6A06B
:100B9400E04480F0801DC20490E74074B4F0E49017
:100BA400E68AF090E68B04F090E6A0E04480F080C2
:050BB40002D322C32260
:100DB600C0E0C083C082D2015391EF90E65D74011A
:080DC600F0D082D083D0E032AE
:100DE600C0E0C083C0825391EF90E65D7404F0D0FA
:060DF60082D083D0E03240
:100DFC00C0E0C083C0825391EF90E65D7402F0D0E6
:060E0C0082D083D0E03229
:100C8300C0E0C083C082852925852A2685268285E2
:100C93002583A37402F08521278522288528828550
:100CA3002783A37407F05391EF90E65D7410F0D09F
:060CB30082D083D0E03284
:100DCE00C0E0C083C082D2035391EF90E65D7408F9
:080DDE00F0D082D083D0E03296
:100C4600C0E0C083C08290E680E030E720852125A1
:100C5600852226852682852583A37402F085292789
:100C6600852A28852882852783A37407F05391EF68
:0D0C760090E65D7420F0D082D083D0E03293
:0106FF0032C8
:010E77003248
:010E78003247
:010E79003246
:010E7A003245
:010E7B003244
:010E7C003243
:010E7D003242
:010E7E003241
:010E7F003240
:010E8000323F
:010E8100323E
:010E8200323D
:010E8300323C
:010E8400323B
:010E8500323A
:010E86003239
:010E87003238
:010E88003237
:010E89003236
:010E8A003235
:010E8B003234
:010E8C003233
:010E8D003232
:010E8E003231
:010E8F003230
:010E9000322F
:010E9100322E
:010E9200322D
:010E9300322C
:010E9400322B
:010E9500322A
:010E96003229
:010E97003228
:010E98003227
:010E99003226
:10069E00AD07ED30E00D908100E09010ABF0A3E0DF
:1006AE0054FEF0ED30E10D909100E09010ABF0A310
:1006BE00E054FDF0ED30E20D90A100E09010ABF0B3
:1006CE00A3E054FBF0ED30E30D90B100E09010ABE1
:0706DE00F0A3E054F7F02245
:100BB900AD07ED30E00D908000E09010ABF0A3E0C0
:100BC9004401F0ED30E10D909000E09010ABF0A3FE
:100BD900E04402F0ED30E20D90A000E09010ABF09F
:100BE900A3E04404F0ED30E30D90B000E09010ABC9
:070BF900F0A3E04408F02224
:100807006080100001013F010101010700000302A0
:100817000202020005030707070707070000000099
:100827000000003F013F0101010101070201000033
:10083700000000000607070707070707000000007A
:100847000000003F01010101010101070000000054
:100857000000000007070707070707070000000059
:100867000000003F01010101010101070000000034
:100877000000000007070707070707070000000039
:100887000000003F60241087000000000000000007
:100897000000000000000000000000000000000051
:1008A700000000000000000000000000471080C0AA
:0608B700100007FE4E00D8
:1008BE0090E60174FEF090E6F504F0901080E09062
:1008CE00E6F3F0901081E090E6C3F0901082E09095
:1008DE00E6C1F0901083E090E6C2F0901085E090B3
:1008EE00E6C0F0901086E090E6F4F075AF07741055
:1008FE00F59A7400F59B759DE4E4F59EFF90E67BFA
:10090E00E090E67CF00FBF80F490E67174FFF0F596
:10091E00B490E672E04480F043B680000000E490AC
:10092E00E6C4F000000090E6C5F0901087E090E677
:10093E00C6F0901088E090E6C7F0901089E090E63F
:10094E00C8F090108AE090E6C9F090108BE090E627
:10095E00CBF090108CE090E6CAF090108DE090E60F
:0A096E00CCF090108EE090E6CDF082
:01097800225C
:100CE80090E682E030E004E020E60B90E682E03017
:100CF800E119E030E71590E680E04401F07F147ECA
:0C0D080000120C0090E680E054FEF02287
:100CB90030050990E680E0440AF0800790E680E07C
:100CC9004408F07FDC7E05120C0090E65D74FFF0AD
:0F0CD90090E65FF05391EF90E680E054F7F02241
:100C00008E188F1990E600E054187012E51924012F
:100C1000FFE43518C313F518EF13F519801590E6A6
:100C200000E05418FFBF100BE51925E0F519E51891
:100C300033F518E5191519AE18700215184E600530
:060C4000120DA580EE225A
:020D3F00A90702
:100D4100AE2DAF2E8F828E83A3E064037017AD01A9
:100D510019ED7001228F828E83E07C002FFDEC3E25
:080D6100FEAF0580DFE4FEFF98
:010D69002267
:100D910090E682E044C0F090E681F04387010000D4
:040DA100000000222C
:100DA5007400F58690FDA57C05A3E582458370F961
:010DB500221B
:03004300020A00AE
:03005300020A009E
:100A0000020DB600020DFC00020DE600020DCE0044
:100A1000020C8300020C46000206FF00020E770063
:100A2000020E7800020E7900020E7A00020E7B00A0
:100A3000020E7C00020E7D00020E7E00020E7F0080
:100A4000020E8000020E7700020E8100020E82006C
:100A5000020E8300020E8400020E8500020E860044
:100A6000020E8700020E7700020E7700020E77005A
:100A7000020E8800020E8900020E8A00020E8B0010
:100A8000020E8C00020E8D00020E8E00020E8F00F0
:100A9000020E9000020E9100020E9200020E9300D0
:100AA000020E9400020E9500020E9600020E9700B0
:080AB000020E9800020E9900ED
:03000000020AB839
:0C0AB800787FE4F6D8FD75812E020AFF5D
:100D6A00C5F0F8A3E028F0C5F0F8E5821582700214
:060D7A001583E038F022B1
:100D8000EB9FF5F0EA9E42F0E99D42F0E89C45F0C9
:010D90002240
:100AC40002039AE493A3F8E493A34003F68001F2AB
:100AD40008DFF48029E493A3F85407240CC8C33333
:100AE400C4540F4420C8834004F456800146F6DF02
:100AF400E4800B01020408102040809007EEE47E9D
:100B0400019360BCA3FF543F30E509541FFEE493F6
:100B1400A360010ECF54C025E060A840B8E493A3BD
:100B2400FAE493A3F8E493A3C8C582C8CAC583CAE8
:100B3400F0A3C8C582C8CAC583CADFE9DEE780BEA0
:0108BD00003A
:00000001FF
